{
	"contracts/1_Storage.sol": {
		"SolidityTest": {
			"abi": [
				{
					"inputs": [],
					"payable": false,
					"stateMutability": "nonpayable",
					"type": "constructor"
				},
				{
					"constant": true,
					"inputs": [],
					"name": "getResult",
					"outputs": [
						{
							"internalType": "uint256",
							"name": "",
							"type": "uint256"
						}
					],
					"payable": false,
					"stateMutability": "view",
					"type": "function"
				},
				{
					"constant": true,
					"inputs": [],
					"name": "yourAge",
					"outputs": [
						{
							"internalType": "uint256",
							"name": "",
							"type": "uint256"
						}
					],
					"payable": false,
					"stateMutability": "view",
					"type": "function"
				}
			],
			"devdoc": {
				"methods": {}
			},
			"evm": {
				"assembly": "    /* \"contracts/1_Storage.sol\":24:701  contract SolidityTest {... */\n  mstore(0x40, 0x80)\n    /* \"contracts/1_Storage.sol\":51:77  constructor() public{... */\n  callvalue\n    /* \"--CODEGEN--\":8:17   */\n  dup1\n    /* \"--CODEGEN--\":5:7   */\n  iszero\n  tag_1\n  jumpi\n    /* \"--CODEGEN--\":30:31   */\n  0x00\n    /* \"--CODEGEN--\":27:28   */\n  dup1\n    /* \"--CODEGEN--\":20:32   */\n  revert\n    /* \"--CODEGEN--\":5:7   */\ntag_1:\n    /* \"contracts/1_Storage.sol\":51:77  constructor() public{... */\n  pop\n    /* \"contracts/1_Storage.sol\":24:701  contract SolidityTest {... */\n  dataSize(sub_0)\n  dup1\n  dataOffset(sub_0)\n  0x00\n  codecopy\n  0x00\n  return\nstop\n\nsub_0: assembly {\n        /* \"contracts/1_Storage.sol\":24:701  contract SolidityTest {... */\n      mstore(0x40, 0x80)\n      callvalue\n        /* \"--CODEGEN--\":8:17   */\n      dup1\n        /* \"--CODEGEN--\":5:7   */\n      iszero\n      tag_1\n      jumpi\n        /* \"--CODEGEN--\":30:31   */\n      0x00\n        /* \"--CODEGEN--\":27:28   */\n      dup1\n        /* \"--CODEGEN--\":20:32   */\n      revert\n        /* \"--CODEGEN--\":5:7   */\n    tag_1:\n        /* \"contracts/1_Storage.sol\":24:701  contract SolidityTest {... */\n      pop\n      jumpi(tag_2, lt(calldatasize, 0x04))\n      shr(0xe0, calldataload(0x00))\n      dup1\n      0x0e6bb905\n      eq\n      tag_3\n      jumpi\n      dup1\n      0xde292789\n      eq\n      tag_4\n      jumpi\n    tag_2:\n      0x00\n      dup1\n      revert\n        /* \"contracts/1_Storage.sol\":609:699  function yourAge() public view returns(uint){... */\n    tag_3:\n      tag_5\n      tag_6\n      jump\t// in\n    tag_5:\n      mload(0x40)\n      dup1\n      dup3\n      dup2\n      mstore\n      0x20\n      add\n      swap2\n      pop\n      pop\n      mload(0x40)\n      dup1\n      swap2\n      sub\n      swap1\n      return\n        /* \"contracts/1_Storage.sol\":469:605  function getResult() public view returns(uint){... */\n    tag_4:\n      tag_7\n      tag_8\n      jump\t// in\n    tag_7:\n      mload(0x40)\n      dup1\n      dup3\n      dup2\n      mstore\n      0x20\n      add\n      swap2\n      pop\n      pop\n      mload(0x40)\n      dup1\n      swap2\n      sub\n      swap1\n      return\n        /* \"contracts/1_Storage.sol\":609:699  function yourAge() public view returns(uint){... */\n    tag_6:\n        /* \"contracts/1_Storage.sol\":648:652  uint */\n      0x00\n        /* \"contracts/1_Storage.sol\":662:670  uint age */\n      dup1\n        /* \"contracts/1_Storage.sol\":673:674  4 */\n      0x04\n        /* \"contracts/1_Storage.sol\":662:674  uint age = 4 */\n      swap1\n      pop\n        /* \"contracts/1_Storage.sol\":690:693  age */\n      dup1\n        /* \"contracts/1_Storage.sol\":683:693  return age */\n      swap2\n      pop\n      pop\n        /* \"contracts/1_Storage.sol\":609:699  function yourAge() public view returns(uint){... */\n      swap1\n      jump\t// out\n        /* \"contracts/1_Storage.sol\":469:605  function getResult() public view returns(uint){... */\n    tag_8:\n        /* \"contracts/1_Storage.sol\":510:514  uint */\n      0x00\n        /* \"contracts/1_Storage.sol\":523:529  uint a */\n      dup1\n        /* \"contracts/1_Storage.sol\":532:533  1 */\n      0x01\n        /* \"contracts/1_Storage.sol\":523:533  uint a = 1 */\n      swap1\n      pop\n        /* \"contracts/1_Storage.sol\":541:547  uint b */\n      0x00\n        /* \"contracts/1_Storage.sol\":550:551  2 */\n      0x02\n        /* \"contracts/1_Storage.sol\":541:551  uint b = 2 */\n      swap1\n      pop\n        /* \"contracts/1_Storage.sol\":559:570  uint result */\n      0x00\n        /* \"contracts/1_Storage.sol\":577:578  b */\n      dup2\n        /* \"contracts/1_Storage.sol\":573:574  a */\n      dup4\n        /* \"contracts/1_Storage.sol\":573:578  a + b */\n      add\n        /* \"contracts/1_Storage.sol\":559:578  uint result = a + b */\n      swap1\n      pop\n        /* \"contracts/1_Storage.sol\":593:599  result */\n      dup1\n        /* \"contracts/1_Storage.sol\":586:599  return result */\n      swap4\n      pop\n      pop\n      pop\n      pop\n        /* \"contracts/1_Storage.sol\":469:605  function getResult() public view returns(uint){... */\n      swap1\n      jump\t// out\n\n    auxdata: 0xa265627a7a723158202c3b3581192570620bb966e4715f4ab3a05b4b41f4dc24005c0e987385edf23c64736f6c63430005110032\n}\n",
				"bytecode": {
					"linkReferences": {},
					"object": "608060405234801561001057600080fd5b5060cf8061001f6000396000f3fe6080604052348015600f57600080fd5b506004361060325760003560e01c80630e6bb905146037578063de292789146053575b600080fd5b603d606f565b6040518082815260200191505060405180910390f35b6059607d565b6040518082815260200191505060405180910390f35b600080600490508091505090565b60008060019050600060029050600081830190508093505050509056fea265627a7a723158202c3b3581192570620bb966e4715f4ab3a05b4b41f4dc24005c0e987385edf23c64736f6c63430005110032",
					"opcodes": "PUSH1 0x80 PUSH1 0x40 MSTORE CALLVALUE DUP1 ISZERO PUSH2 0x10 JUMPI PUSH1 0x0 DUP1 REVERT JUMPDEST POP PUSH1 0xCF DUP1 PUSH2 0x1F PUSH1 0x0 CODECOPY PUSH1 0x0 RETURN INVALID PUSH1 0x80 PUSH1 0x40 MSTORE CALLVALUE DUP1 ISZERO PUSH1 0xF JUMPI PUSH1 0x0 DUP1 REVERT JUMPDEST POP PUSH1 0x4 CALLDATASIZE LT PUSH1 0x32 JUMPI PUSH1 0x0 CALLDATALOAD PUSH1 0xE0 SHR DUP1 PUSH4 0xE6BB905 EQ PUSH1 0x37 JUMPI DUP1 PUSH4 0xDE292789 EQ PUSH1 0x53 JUMPI JUMPDEST PUSH1 0x0 DUP1 REVERT JUMPDEST PUSH1 0x3D PUSH1 0x6F JUMP JUMPDEST PUSH1 0x40 MLOAD DUP1 DUP3 DUP2 MSTORE PUSH1 0x20 ADD SWAP2 POP POP PUSH1 0x40 MLOAD DUP1 SWAP2 SUB SWAP1 RETURN JUMPDEST PUSH1 0x59 PUSH1 0x7D JUMP JUMPDEST PUSH1 0x40 MLOAD DUP1 DUP3 DUP2 MSTORE PUSH1 0x20 ADD SWAP2 POP POP PUSH1 0x40 MLOAD DUP1 SWAP2 SUB SWAP1 RETURN JUMPDEST PUSH1 0x0 DUP1 PUSH1 0x4 SWAP1 POP DUP1 SWAP2 POP POP SWAP1 JUMP JUMPDEST PUSH1 0x0 DUP1 PUSH1 0x1 SWAP1 POP PUSH1 0x0 PUSH1 0x2 SWAP1 POP PUSH1 0x0 DUP2 DUP4 ADD SWAP1 POP DUP1 SWAP4 POP POP POP POP SWAP1 JUMP INVALID LOG2 PUSH6 0x627A7A723158 KECCAK256 0x2C EXTCODESIZE CALLDATALOAD DUP2 NOT 0x25 PUSH17 0x620BB966E4715F4AB3A05B4B41F4DC2400 0x5C 0xE SWAP9 PUSH20 0x85EDF23C64736F6C634300051100320000000000 "
				},
				"gasEstimates": {
					"creation": {
						"codeDepositCost": "41400",
						"executionCost": "93",
						"totalCost": "41493"
					},
					"external": {
						"getResult()": "258",
						"yourAge()": "204"
					}
				},
				"methodIdentifiers": {
					"getResult()": "de292789",
					"yourAge()": "0e6bb905"
				}
			},
			"storageLayout": {
				"storage": [],
				"types": null
			},
			"userdoc": {
				"methods": {}
			}
		}
	}
}